:020000040800F2
:10000000D006002001010008B31C0008931100086D
:10001000B11C00083D0200089D1F00080000000000
:10002000000000000000000000000000891D000822
:100030003F02000800000000B51C00088B1D0008EE
:100040001B0100081B0100081B0100081B01000820
:100050001B0100081B0100081B0100081B01000810
:100060001B0100081B0100081B0100081B01000800
:100070001B0100081B0100081B0100081B010008F0
:100080001B0100081B0100081B0100081B010008E0
:100090001B0100081B0100081B0100081B010008D0
:1000A0001B0100081B0100081B0100081B010008C0
:1000B0001B0100081B010008251E00081B01000889
:1000C0001B0100081B0100081B010008B91C0008E7
:1000D0001B0100081B0100081B0100081B01000890
:1000E0001B0100081B0100081B010008DFF80CD0F1
:1000F00000F092F800480047B9210008D00600201F
:100100000648804706480047FEE7FEE7FEE7FEE7B1
:10011000FEE7FEE7FEE7FEE7FEE7FEE7DD1D00087F
:10012000ED0000080649074A0868504343F23902C7
:10013000104408604008704701490860704700009B
:10014000280000206D4EC641D2B201E000F8012B1C
:10015000491EFBD270470022F6E710B513460A4647
:1001600004461946FFF7F0FF204610BDC10F80EA94
:10017000E0700844CA079623002100F01FB830B58C
:100180000B46014600202022012409E021FA02F555
:100190009D4205D303FA02F5491B04FA02F52844EF
:1001A000151EA2F10102F1DC30BD0029A8BF704785
:1001B000401C490008BF20F00100704710B4B0FA9D
:1001C00080FC00FA0CF050EA010404BF10BC704738
:1001D00049B1CCF1200421FA04F411FA0CF118BF52
:1001E000012121430843A3EB0C01CB1D4FEA006121
:1001F0004FEA102042BF002010BC704700EBC350F4
:1002000010440029A4BF10BC7047401C490008BF1F
:1002100020F0010010BC7047064C074D06E0E06876
:1002200040F0010394E8070098471034AC42F6D33D
:10023000FFF760FF242C0008442C0008FEE77047FD
:1002400010B590F821100024022903D00421816305
:1002500001243DE001680A6822F00E020A6001688C
:100260000A6822F001020A601A4A0168914201D12B
:10027000012121E0174A1432914201D110211BE0E3
:10028000144A2832914201D1891515E0114A3C32B5
:10029000914201D189140FE00E4A5032914202D1AD
:1002A0004FF4803108E00B4A6432914202D14FF49E
:1002B000801101E04FF08071064A083A5160012137
:1002C00080F82110002180F82010416B01B188478F
:1002D000204610BD0800024070B5044600F00AF93F
:1002E0000546601C02D004480078044400F002F97E
:1002F000401BA042FAD370BD180000202DE9F84F32
:10030000DFF8B891002409F1040A0AF1040B23462E
:100310000F270BF1040EC9E00125A5402A40AA428F
:100320007DD1674ED1F804C0ACEB0608B44532D09D
:1003300014DCBCF1030F3AD009DCBCF1000F2AD069
:10034000BCF1010F1CD0BCF1020F31D11DE0BCF19A
:10035000110F17D0BCF1120F2AD119E0B8F5881F80
:1003600019D006DCB8F5803F15D0B8F5801F1FD135
:1003700011E0B8F5001F0ED0B8F5041F18D10AE03F
:10038000CB6815E0CB681B1D12E0CB6808330FE08B
:10039000CB680C330CE08B682BB1012B4FF00803BA
:1003A00003D0456104E0042302E0056100E000237E
:1003B000FF2A01D8064601E000F104064FEA840551
:1003C00001D9A5F12005D6F8008007FA05FC28EA36
:1003D0000C0803FA05F548EA0508C6F800804D68E0
:1003E000ED0062D5374DAE6946F00106AE61AD69EC
:1003F00024F0030605F001050095334D06EB050CCE
:10040000DCF80850A607360F07FA06F825EA0805B3
:10041000DFF8B880404503D14FF0000817E044E012
:10042000DFF8AC80404502D14FF001080FE0DFF863
:10043000A480404502D14FF0020808E0DFF8988020
:10044000404502D14FF0030801E04FF0040808FADC
:1004500006F848EA0508CCF808804D68D9F800602D
:10046000ED034D4601D5164300E096432E604D68DE
:10047000DAF80060AD03554601D5164300E0964317
:100480002E604D68DBF80060ED025D4601D5164335
:1004900000E096432E604D68DEF80060AD027546C0
:1004A00001D5164300E096432E60641C0D682A4671
:1004B000E5407FF431AFBDE8F88F00000004014053
:1004C000000011100010024000000140000801402F
:1004D000000C01400010014000140140C2680A42B3
:1004E00001D041617047016170470AB101617047F5
:1004F0000904FBE7014880687047000018000020ED
:100500000248816802781144816070471800002019
:10051000074810B5016841F010010160032000F0A8
:1005200075F8002000F006F800F024F8002010BD57
:100530000020024070B50D4D04464FF47A712878C2
:10054000B1FBF0F00A490968B1FBF0F000F06AFC79
:1005500048B9102C07D200222146501E00F036F870
:1005600000206C6070BD012070BD000018000020EC
:10057000240000200C4808B5816941F00101816127
:10058000816901F001010091C16941F08051C161AF
:10059000C06900F0805000900448416821F0E0619B
:1005A00041F00071416008BD0010024000000140B0
:1005B000002809DB00F01F02012191404009800062
:1005C00000F1E020C0F8001170470000F0B40E4BBD
:1005D0001B680C46C3F30223C3F10705042D00D9A1
:1005E0000425191D072901D2002300E0DB1E012686
:1005F00006FA05F1491E214099409E40761E16409C
:100600003143F0BC01F0E0BC0CED00E0064900F025
:10061000070208684FF6FF03184040EA0220034A29
:1006200010430860704700000CED00E00000FA0580
:100630002DE9F0470F46050061D0434E306800F0C9
:100640000700B84209D2306820F007003843306014
:10065000306800F00700B84251D128683B4C810750
:1006600012D5400703D5606840F4E06060602878E8
:10067000000703D5606840F4605060606068A96856
:1006800020F0F000084360602878C00728D0686830
:10069000012810D02168022810D0890700292EDAFD
:1006A000616821F0030101436160FFF723FF804689
:1006B00041F288390DE021688903EFE78901EDE710
:1006C000FFF718FFA0EB0801494502D90320BDE858
:1006D000F0876068696800F00C00B0EB810FEFD123
:1006E000306800F00700B8420BD9306820F00700EE
:1006F00038433060306800F00700B84201D0012074
:10070000E5E72878400705D56068E96820F4E060EF
:10071000084360602878000706D56068296920F4DE
:10072000605040EAC100606000F018F86168084A53
:10073000C1F30311515CC8400649086006480068CF
:10074000FFF7F8FE0020C2E7002002400010024040
:10075000142C0008240000201C00002012A185B0E9
:100760000FC98DE80F0014A0144A00680490516866
:10077000134801F00C03042B10D0082B0ED1C1F349
:100780008343C9031DF803000AD5516804AAC1F3C5
:100790004041515C0A4A5043B0FBF1F005B070474C
:1007A00008494843FAE70000020304050607080960
:1007B0000A0B0C0D0E0F1010010200000010024079
:1007C00000127A0000093D002DE9F84F040070D0B6
:1007D0002078C04DC00749D06868C0F38100012867
:1007E00007D06868C0F38100022809D16868C00397
:1007F00006D52868800339D560680028E7D035E041
:100800006068B0F5803F0BD010B1B0F5A02F11D0CB
:10081000286820F480302860286820F4802002E0D6
:10082000286840F480302860606890B1FFF762FE6D
:1008300006460AE0286840F480202860F0E700BF00
:10084000FFF758FE801B642873D828688003F7D50B
:100850000CE0FFF74FFE064605E000BFFFF74AFE3B
:10086000801B6428F0D828688003F7D420789A4E3B
:1008700080074FF001094FF0000839D5686810F083
:100880000C0F07D06868C0F38100022809D168689E
:10089000C00306D42868800714D52069012808D130
:1008A00010E02069B0B1C6F80090FFF723FE0746BC
:1008B00005E00AE1FFF71EFEC01B0228C4D8286825
:1008C0008007F7D52868616920F0F80040EAC10088
:1008D00028600DE0C6F80080FFF70CFE074604E034
:1008E000FFF708FEC01B022823D828688007F7D42A
:1008F000207800072CD57948A169D9B1C0F80090BB
:10090000FFF7F8FD074604E0FFF7F4FDC01B0228DF
:100910000FD8686A8007F7D571484FF4FA5100681C
:10092000B0FBF1F0009000BF0098411E0091FAD298
:100930000EE080E0C0F80080FFF7DCFD074604E031
:10094000FFF7D8FDC01B022875D8686A8007F7D466
:100950002078400760D5E8690027C00008D4E8691E
:1009600040F08050E861E869012700F08050009075
:100970005C480168C90513D40168834641F480715D
:100980000160FFF7B7FD824606E000BFFFF7B2FD4A
:10099000A0EB0A0064284ED8DBF80000C005F5D5AE
:1009A000E06801280AD008B1052813D0286A20F091
:1009B00001002862286A20F0040002E0286A40F062
:1009C00001002862E06841F2883B98B1FFF792FD90
:1009D00082460BE0286A40F004002862EEE700BF80
:1009E000FFF788FDA0EB0A0159455AD8286A80070D
:1009F000F6D50CE0FFF77EFD824605E0FFF77AFDB5
:100A0000A0EB0A0159454CD8286A8007F6D41FB1DB
:100A1000E86920F08050E861E06988B36968C1F353
:100A20008101022944D00228C6F8608004D0FFF773
:100A300061FD044638E034E0FFF75CFD074604E062
:100A4000FFF758FDC01B02282BD828688001F7D477
:100A5000206AB0F5803F05D16868A16820F40030B5
:100A600008436860D4E908010843696821F47411F7
:100A700008436860C6F86090FFF73CFD044606E056
:100A800025E000BFFFF736FD001B022809D82868C3
:100A90008001F7D51BE000BFFFF72CFD001B0228EB
:100AA00002D90320BDE8F88F28688001F4D40EE055
:100AB0000128F7D06868226A00F48031914204D19D
:100AC000616A00F47010884201D00120EAE700203A
:100AD000E8E7000000100240000042428004424269
:100AE00024000020007000407047000038B5044624
:100AF000006842688168C9434B0606D5CB0704D11C
:100B0000D3435B0601D4216C05E08B0708D4D343A3
:100B10001B0605D4616C01B02046BDE83040084793
:100B20008B0601D54B0646D4D3439B0643D44B06D4
:100B30000AD494F85130032B3ED0636D43F0040384
:100B40006365C36883680093890609D4616D41F0C9
:100B50000101616581680091016821F04001016037
:100B6000606D002827D02068416821F0E0014160D5
:100B7000012084F85100900722D02068416821F0BC
:100B800003014160104DE06C40B14563E06CFFF73C
:100B900057FB18B1606D40F040006065A06C002804
:100BA00009D04563A06CFFF74BFB002803D0606DB4
:100BB00040F04000606538BDC1688068009038BD75
:100BC0002046FFF791FF38BDC51C000870B5040032
:100BD00005D00025A56294F8510010B106E001206F
:100BE00070BD84F85050204600F02EF8022084F8A2
:100BF00051002068016821F040010160D4E9010141
:100C00000843D4E903121143084361690843218B67
:100C100001F400710843E1690843216A0843A16AAD
:100C2000084321680860A069042101EA1040216896
:100C300048602068C16921F40061C16165650120D7
:100C400084F85100002070BD30B585B000240094B8
:100C50000194029403940068184988422CD11848E2
:100C6000816941F480518161816901F4805104916D
:100C7000816941F0040181618069124D00F0040036
:100C80000490A02000900220019003200390694668
:100C90002846FFF733FB4020CDE9000401200290F5
:100CA00069462846FFF72AFB002211462320FFF75A
:100CB0008DFC2320FFF77CFC05B030BD00300140E7
:100CC00000100240000801402DE9F84F044690F85A
:100CD000500000271D461646894601280DD04FF0CA
:100CE000010B84F850B0FFF705FC804694F85100E2
:100CF000BA46012804D002278EE00220BDE8F88F12
:100D0000B9F1000F7DD0002E7BD0032084F8510074
:100D1000C4F854A0C4F83090A686E686C4F838A07B
:100D2000A4F83CA0A4F83EA0C4F844A0C4F840A095
:100D3000A068B0F5004F04D12068016841F48041FB
:100D4000016020680168490603D4016841F0400150
:100D50000160E068B0F5006F606803D030B3012E29
:100D600024D040E008B1012E1CD1206B21680088FE
:100D7000C86006E020688168890709D5216B098869
:100D8000C160206B801C2063E08E401EE08609E07D
:100D9000FFF7B0FBA0EB0800A84202D3681C01D00B
:100DA00031E07DB3E08E0028E4D11FE0206B2168A4
:100DB0000078087306E020688168890709D5216BEF
:100DC00009780173206B401C2063E08E401EE08692
:100DD00009E0FFF78FFBA0EB0800A84202D3681CD4
:100DE00001D010E075B1E08E0028E4D142462946DA
:100DF000204600F06FFF08B120206065A06820B198
:100E000007E008E0FFE7032706E02068C168806884
:100E10000090606D00B1012784F851B084F850A0B3
:100E200038466BE710B5401EB0F1807F01D301203A
:100E300010BD4FF0E02460610F21601701F0C4F88D
:100E40000020A06107202061002010BD704770477E
:100E500070B590F83C20012A19D0012400F83C4FCD
:100E60000222427050F83C3C5A689D6822F070069D
:100E70000A684968324325F0800529435A6050F8D2
:100E80003C2C9160447000210170084670BD022026
:100E900070BD10B5040003D094F83D0010B107E018
:100EA000012010BD002084F83C00204600F00CF822
:100EB000022084F83D00211D206800F0B9FF0120C8
:100EC00084F83D00002010BD08B500680B49884239
:100ED00012D10B48C16941F00401C161C06900220F
:100EE00000F00400009011461E20FFF76FFBBDE8E4
:100EF00008401E20FFF75CBB08BD00000008004052
:100F0000001002400168CA6842F00102CA6000682D
:100F1000816801F00701062903D0016841F0010151
:100F200001600020704770B5044690F83C0001282D
:100F300017D0012584F83C50022084F83D00206839
:100F4000826822F0770222F47F428260086850288B
:100F500030D00DDC20284DD005DC98B310283BD1D3
:100F600048E0022070BD302844D0402834D139E018
:100F7000602828D0702806D0B0F5805F2CD0B0F55E
:100F8000005F29D10AE0CB68D1E90121206800F097
:100F900085FF2068816841F0770109E0CB68D1E9DD
:100FA0000121206800F07AFF2068816841F48041C7
:100FB000816011E0CA684968206800F081FF502113
:100FC000206807E016E0CA684968206800F089FFD9
:100FD0006021206800F06CFF84F83D50002084F808
:100FE0003C0070BDCA684968206800F069FF402174
:100FF0002068EFE7226801461046EBE7704770B5BE
:101000000446006801694FF00005C943890715D4FB
:10101000C168C943890711D4E91E01610120207705
:10102000206880698007204602D0FFF7E7FF04E0D0
:1010300000F098F8204600F096F8257720680169BE
:10104000C943490717D4C168C943490713D46FF08E
:1010500004010161022020772068806910F4407F3C
:10106000204602D0FFF7CAFF04E000F07BF82046DC
:1010700000F079F8257720680169C943090716D47B
:10108000C168C943090712D46FF008010161042047
:1010900020772068C0698007204602D0FFF7AEFFA6
:1010A00004E000F05FF8204600F05DF82577206846
:1010B0000169C943C90617D4C168C943C90613D415
:1010C0006FF010010161082020772068C06910F4DA
:1010D000407F204602D0FFF791FF04E000F042F885
:1010E000204600F040F8257720680169C943C90708
:1010F00008D1C168C943C90704D1891E01612046CE
:1011000000F032F820680169C943090609D4C168B2
:10111000C943090605D46FF0800101612046FFF73D
:1011200095FE20680169C943490609D4C168C943CD
:10113000490605D46FF040010161204600F028F80F
:1011400020680169C94389060BD4C168C94389066F
:1011500007D46FF0200101612046BDE87040FFF721
:1011600076BE70BD704770470068074988420AD153
:1011700006480188491C018001884FF6FF729142A0
:1011800001D30021018070470008004000000020CA
:101190007047FEE72DE9FE4F9146DDE90C629B4664
:1011A0008A46202801D32038C0B2224B00EB4000F1
:1011B000002103EB400001AC435C6354491CC9B2FD
:1011C0000629F9D34FF6FF7006EB4601009200EABC
:1011D000410200EAC6034946504600F079FA00256C
:1011E000A04601275FF0000418F8050007FA04F193
:1011F00008420DD0012E15D004FB069081B205FBEC
:1012000006A0334680B21A46CDF800B000F060FA6E
:10121000641CE4B2082CE7D36D1CEDB2062DE1D3BB
:10122000BDE8FE8F09EB04010AEB05005A4600F009
:10123000A3F9EDE7D42900082DE9F0470E464FF455
:10124000FA740746B4EB460F00D90C46012211464A
:101250001F48FFF74AF9DFF87C900022102148462A
:10126000FFF743F94FEA1728204601F07DFB0546BA
:101270000020F9B205E000BF05F800802A18801CA4
:101280005170A042F8D37000B0FBF4F1B0FBF4F75A
:1012900004FB110857B1002606E0A2B20A23294632
:1012A0000D48FFF711FD761CBE42F6D31FFA88F2F7
:1012B0000A2329460848FFF707FD01221021484666
:1012C000FFF713F92846BDE8F04700F04DBF0000D6
:1012D000000C014000080140340000202DE9FF4FC0
:1012E0008146002583B014460120A0EB4400CDE9DF
:1012F00001058846009544E0A9EB040608EB050BC0
:10130000A8EB050A09EB04070DE000BF1FFA8BF1FB
:10131000B0B2069A00F030F91FFA8AF1B0B2069A1C
:1013200000F02AF9761CB742F0DAA9EB050608EBC3
:10133000040BA8EB040A09EB05070CE01FFA8BF17C
:10134000B0B2069A00F018F91FFA8AF1B0B2069A04
:1013500000F012F9761CB742F0DA029900986D1C81
:1013600008440090881C0290DDE9001000EB410069
:10137000002806DD0846019908440090881C641E78
:101380000190AC42B8DA07B0BDE8F08FF8B54FF085
:10139000000C069E6746151A01D54FF0010C5C1A29
:1013A00000D50127BCF1000F0CD0801A85B2104681
:1013B00057B1C91A8AB2194613462A46009600F058
:1013C00087F9F8BDADB2F3E7A2B2F5E72DE9FF4F1B
:1013D000541E00250127924685B088468146BB46AB
:1013E000A7EB4A0655E000BF08EB050081B200906C
:1013F00009EB0400039080B2089A00F0BDF808EBF6
:10140000040081B2019009EB0500029080B2089AB5
:1014100000F0B2F80198089A81B2A9EB050001909A
:1014200080B200F0A9F80098089A81B2A9EB0400F4
:10143000049080B200F0A0F8A8EB050081B2009003
:101440000498089A80B200F097F8A8EB040081B2E3
:1014500004900198089A80B200F08EF80498089AD7
:1014600081B2029880B200F087F80098089A81B2A1
:10147000039880B200F080F8002E05DC5E446D1CFD
:101480000BF1020B002E04DDBF1CA7EB4A00064443
:10149000641EAC42A8DA09B0BDE8F08F2DE9F05F18
:1014A00083460027A2EB0B00984691468A463E46AB
:1014B0000446FEF75BFE10F1FF4F00D30127A8EBB7
:1014C0000A000546FEF752FE10F1FF4F00D3012639
:1014D0003FB3ABEB090084B22246514658460A9B03
:1014E00000F026F82246414658460A9B00F020F8B4
:1014F000CEB1AAEB080085B22A46514658460A9B4F
:1015000000F032F92A46514648460A9B00F02CF971
:101510002C430AD0414648460A9ABDE8F05F00F0E5
:101520002BB8A4B2D8E7ADB2E6E7BDE8F09F000063
:1015300070B505460F4814461E464288954217D29C
:101540000288914214D243882A19521E9A4202DB21
:101550004088401B84B22819401E82B20B462846A0
:1015600000F07CFA21463046BDE87040FFF764BECB
:1015700070BD0000100000202DE9FE4305465048D4
:101580000C46164641888D427ED2008884427BD22A
:101590004C4F002201213846FEF7A7FFDFF82881D3
:1015A000002210214046FEF7A0FF2A2000F04CFA4E
:1015B000012211463846FEF798FF012210214046CD
:1015C000FEF793FF002210214046FEF78EFF280A07
:1015D0008DF800008DF801506D1C280A8DF802006E
:1015E0008DF803500123042269463848FFF76CFB4D
:1015F000012210214046FEF778FF002201213846E3
:10160000FEF773FF002210214046FEF76EFF2B20ED
:1016100000F01AFA012211463846FEF766FF012251
:1016200010214046FEF761FF002210214046FEF7E0
:101630005CFF200A8DF804008DF80540641C200A28
:101640008DF806008DF807400123042201A91F48E8
:10165000FFF73AFB012210214046FEF746FF002229
:1016600001213846FEF741FF002210214046FEF7D7
:101670003CFF2C2000F0E8F9012211463846FEF725
:1016800034FF0122102100E017E04046FEF72DFF55
:10169000002210214046FEF728FF300A8DF808008E
:1016A0008DF809600123022202A90848FFF70CFB0C
:1016B000012210214046FEF718FFBDE8FE8300001E
:1016C00010000020000C0140000801403400002000
:1016D0002DE9F041154C1646069F62881D46904242
:1016E00021D2228891421ED263888219521E9A42C8
:1016F00002DB6288121A96B223884A19521E9A4255
:1017000002DB2288521A95B24A19521E93B28219EC
:10171000521E92B200F0A2F905FB06F13846BDE870
:10172000F041FFF789BDBDE8F08100001000002006
:101730002DE9FC479946DDE90A7892460D460446B4
:1017400007EB47060AE0CDE900784B4652462946AA
:10175000641CFFF71FFD05EB4600C5B2207800288A
:10176000F1D1BDE8FC87000070B5144602460E4872
:101770001D4643889A4216D20388994213D206889E
:101780000B195B1EB34202DB0088401A84B20819B1
:10179000401E83B2104600F061F921462846BDE89C
:1017A0007040FFF749BD70BD1000002001220221EA
:1017B0000148FEF79ABE0000000C014070B5084CCD
:1017C0000546238862880021084600F047F96188B1
:1017D000208841432846BDE87040FFF72DBD00003A
:1017E0001000002010B5FFF7E1FF00F025F900F030
:1017F00005F9012000F084F94FF47A70FEF76CFDD2
:10180000CB2000F07DF9392000F096F92C2000F073
:1018100093F9002000F090F9342000F08DF90220B7
:1018200000F08AF9CF2000F06BF9002000F084F975
:10183000C12000F081F9302000F07EF9E82000F0AE
:101840005FF9852000F078F9002000F075F9782024
:1018500000F072F9EA2000F053F9002000F06CF972
:10186000002000F069F9ED2000F04AF9642000F052
:1018700063F9032000F060F9122000F05DF9812087
:1018800000F05AF9F72000F03BF9202000F054F95D
:10189000C02000F035F9232000F04EF9C12000F0FF
:1018A0002FF9102000F048F9C52000F029F93E205A
:1018B00000F042F9282000F03FF9C72000F020F99D
:1018C000862000F039F9362000F01AF9482000F09F
:1018D00033F93A2000F014F9552000F02DF9B12029
:1018E00000F00EF9002000F027F9182000F024F98C
:1018F000B62000F005F9082000F01EF9822000F063
:101900001BF9272000F018F9F22000F0F9F8002068
:1019100000F012F9262000F0F3F8012000F00CF995
:10192000E02000F0EDF80F2000F006F9312000F083
:1019300003F92B2000F000F90C2000F0FDF80E2038
:1019400000F0FAF8082000F0F7F84E2000F0F4F864
:10195000F12000F0F1F8372000F0EEF8072000F059
:10196000EBF8102000F0E8F8032000F0E5F80E2076
:1019700000F0E2F8092000F0DFF8002000F0DCF8C9
:10198000E12000F0BDF8002000F0D6F80E2000F0B5
:10199000D3F8142000F0D0F8032000F0CDF8112087
:1019A00000F0CAF8072000F0C7F8312000F0C4F8B2
:1019B000C12000F0C1F8482000F0BEF8082000F077
:1019C000BBF80F2000F0B8F80C2000F0B5F831207B
:1019D00000F0B2F8362000F0AFF80F2000F0ACF8BD
:1019E000112000F08DF87820FEF776FC292000F019
:1019F00087F8BDE81040002000F05AB810B50C4C34
:101A0000002202212046FEF770FDC820FEF764FC8C
:101A1000002210210748FEF768FDC820FEF75CFC95
:101A200020460122BDE810400221FEF75EBD000005
:101A3000000C014000080140002210210148FEF77F
:101A400054BD00000008014001B501231A46694653
:101A50000148FFF739F908BD340000202DE9F041B5
:101A600007461C4615460E462A2000F049F8380A5B
:101A700000F062F8F8B200F05FF8280A00F05CF8B5
:101A8000E8B200F059F82B2000F03AF8300A00F0E4
:101A900053F8F0B200F050F8200A00F04DF8E0B230
:101AA00000F04AF8BDE8F0412C2000F029B8000011
:101AB0002DE9F0410746362000F022F80120FEF71C
:101AC0000BFC0E4CF0254FF4A0766FB1012F0DD01A
:101AD000022F0DD0032F05D15FF0E80000F02CF8A5
:101AE00066802580BDE8F081482002E02820F5E7E7
:101AF000882000F021F865802680F3E710000020A0
:101B000070B50B4C0546002210212046FEF7EDFC77
:101B1000002201210748FEF7E8FC2846FFF794FF62
:101B20002046BDE8704001221021FEF7DEBC000017
:101B300000080140000C014070B505460122114625
:101B40000948FEF7D2FC094C002210212046FEF77E
:101B5000CCFC2846FFF778FF2046BDE87040012204
:101B60001021FEF7C2BC0000000C0140000801403B
:101B70002DE9F04186B00020009001900290039082
:101B80002548816941F020018161816901F02001CE
:101B90000491816941F004018161816901F00401CE
:101BA0000491816941F00801816180691B4F00F057
:101BB00008000490012210213846FEF796FCDFF859
:101BC0006080012203214046FEF78FFCBE140022F4
:101BD00031464046FEF789FC01241020CDE900047F
:101BE000032569463846CDE90245FEF787FBCDE976
:101BF000005469464046CDE90245FEF77FFB0220CE
:101C0000CDE90240CDE9006469464046FEF776FB27
:101C100006B0BDE8F081000000100240000801405D
:101C2000000C01400C480B494FF4007201604FF466
:101C30008271416000218160C1600161C0E90512CB
:101C40000822C0E90721416281620A21C162FEF7D0
:101C5000BDBF0000003001403400002010B586B048
:101C600000241248009401940294039404940E49B1
:101C7000059401604721C0E901144FF6FF71C0E9E6
:101C800003148461FFF705F94FF480500090694612
:101C90000648FFF748F9049404A904480594FFF79F
:101CA000D7F806B010BD0000000800408C000020EE
:101CB000FEE77047704700000148FEF717BF0000BD
:101CC0003400002010B5406A0021C187C186FEF7AC
:101CD0000BFF10BD38B50B46009204460022802150
:101CE00000F008F8002804D0606D40F02000606526
:101CF000032038BD2DE9F0411D4617460E46044627
:101D0000DDF8188008E0681C06D0FEF7F3FBA0EBB6
:101D10000800A8420BD255B12068806836EA00005E
:101D200030D00020B842EED10020BDE8F08120681C
:101D3000416821F0E00141606068B0F5827F0BD11D
:101D4000A068B0F5004F02D0B0F5806F04D12068D4
:101D5000016821F040010160A06AB0F5005F09D17F
:101D60002068016821F4005101602068016841F495
:101D700000510160012084F85100002084F85000D7
:101D80000320D2E70120CDE77047FEF7B9BB30B59D
:101D90008FB028216846FEF7DEF914210AA8FEF765
:101DA000DAF901210804CDE900100024029402258B
:101DB0000491CDE907504FF4E01009906846FEF712
:101DC00003FD0F20CDE90A056802CDE90C40022190
:101DD0000AA80E94FEF72CFC0FB030BD0D48016828
:101DE00041F00101016041680B4A11404160016806
:101DF0000A4A11400160016821F4802101604168B4
:101E000021F4FE0141604FF41F0181600449C003C9
:101E100008607047001002400000FFF8FFFFF6FE68
:101E200008ED00E00148FFF7EAB800008C00002050
:101E3000F0B50268164B174C174D4FF0804798428B
:101E400005D0B84203D0A04201D0A84203D122F06D
:101E500070064A683243984205D0B84203D0A04287
:101E600001D0A84203D122F44074CA6822434C69CD
:101E700022F08002224302608A68C2620A6882629B
:101E8000984201D10969016301214161F0BD00005F
:101E9000002C0140000400400008004010B5846898
:101EA00042EA032224F47F440A432243826010BDA5
:101EB000826822F070020A4342F007018160704795
:101EC00010B5036A046A24F001040462846924F0F2
:101ED000F00444EA021423F00A020A438461026215
:101EE00010BD10B5036A23F0100303628369046A0E
:101EF00023F4704343EA023224F0A00343EA0111C1
:101F00008261016210BD000010B5054B054C1988B7
:101F100020681A8880B240EA01408A42F7D110BD99
:101F20000000002024080040074800210180074AE3
:101F30004FF47A71C260B2FBF1F2B2FBF1F1C0E989
:101F400001120348FEF7DEBF0000002040420F00F0
:101F50008C00002070B50446007816460D4658B136
:101F600000202070FFF7D0FF60600B4876B1012E93
:101F70000ED0C0686843A060FFF7C6FF6168401AD2
:101F8000A168884206D30120207070BD4068F1E747
:101F90008068EFE7002070BD00000020FEE7000031
:101FA0000FB4084B10B504A902AA039800F02CF84E
:101FB000044602A9002000F0D1F8204610BC5DF8CC
:101FC00014FB00005D2100080907090E002804DB4E
:101FD00000F1E02080F80014704700F00F0000F1DD
:101FE000E02080F8141D704702E008C8121F08C1E5
:101FF000002AFAD170477047002001E001C1121F8A
:10200000002AFBD1704700002DE9FF4F89B09B46A5
:102010000446002506E025280BD05A460B99904728
:10202000641C6D1C20780028F5D10DB02846BDE851
:10203000F08F0027B8460122474900E0074314F813
:10204000013F203B02FA03F00842F7D120782E2806
:1020500019D114F8010F47F004072A280ED06FF0A9
:102060002F022078A0F1300109290CD808EB880153
:1020700002EB410100EB0108641CF2E70A98641CC2
:1020800050F8048B0A9020780028CED0642808D01D
:10209000692806D075281ED05A460B9990476D1CAA
:1020A00058E00A994FF00A0901C90A91002802DA9A
:1020B00040422D2102E0390504D52B218DF8201056
:1020C000012103E0F90704D02021F7E78A4608AE92
:1020D0000DE00021FAE70A994FF00A0901C90A91B7
:1020E000F7E74946FEF74BF8303106F8011D0028A6
:1020F000F7D1ADEB060000F12009780701D44FF0CD
:102100000108C84502DDA8EB090000E00020804678
:10211000002706E008A85A46C05D0B9990476D1C41
:102120007F1C5745F6DB04E030205A460B99904758
:102130006D1CB8F10001A8F10108F5DC05E016F806
:10214000010B5A460B9990476D1CB9F10001A9F19A
:102150000109F4DC641C65E7092801000A68531CC6
:102160000B6010707047000010B5002821D0114B93
:102170000022001F196803E0814203D80A4649681B
:102180000029F9D152B11368841A9C4204D1006825
:1021900018441060104602E0506000E0186039B149
:1021A00002680B1A934203D10B681A440260496813
:1021B000416010BD2C00002090B001208DF830004F
:1021C000FEF7A6F9FFF7E3FDFFF7D2FCFFF746FDA8
:1021D000FFF728FDFFF7A8FEFFF704FB4FF4FA60B6
:1021E000FEF77AF84FF6FF70FFF7E8FA01224FF496
:1021F000FA710CA8FFF7AEFE20B14FF48051FC48F5
:10220000FEF76CF90020FFF7D9FA0320FFF750FC26
:1022100000270225CDE900574FF478480A224346AB
:102220001146F4A0FFF784FA41F28830FEF754F823
:102230004FF6FF742046FFF7C1FA0320FFF738FC82
:10224000CDE900540A2200231146F1A0FFF770FAED
:102250004FF4FA6B5846FEF73FF82046FFF7AEFA08
:1022600000264FF4FC6AB9463246F2A102A8FFF7F5
:1022700097FECDE900540A220023114602A8FFF779
:1022800057FACDE900541F231E220A2102A8FFF7A6
:102290004FFACDE90054434632220A2102A8FFF743
:1022A00047FACDE900545746534646220A2102A870
:1022B000FFF73EFACDE9005400235A220A2102A872
:1022C000FFF736FACDE900541F236E220A2102A837
:1022D000FFF72EFACDE90054434682220A2102A8D4
:1022E000FFF726FACDE900543B4696220A2102A8C0
:1022F000FFF71EFACDE900594F462346AA220A21CC
:1023000002A8FFF715FACDE900571F23BE220A21C4
:1023100002A8FFF70DFACDE900574346D2220A2161
:1023200002A8FFF705FA761CB6B20A2E9CD94FF424
:102330007A70FDF7D1FF2046FFF740FA0320FFF740
:10234000B7FBCDE900540A2200231146BDA0FFF7D8
:10235000EFF95E465846FDF7BFFF2046FFF72EFA1D
:10236000002503272A46B3A102A8FFF719FECDE9ED
:1023700000740A220023114602A8FFF7D9F96D1C48
:10238000ADB2642DEED94FF47A784046FDF7A4FF44
:102390002046FFF713FA0320FFF78AFB4FF0010BEB
:1023A000CDE900B40A225D4600231146ABA0FFF739
:1023B000BFF937463046FDF78FFF2046FFF7FEF99D
:1023C0000026642332211A4608460096FFF766F875
:1023D000322314211A4608460096FEF7D7FF13232E
:1023E0000A211A4608460096FFF758F84046FDF7BE
:1023F00073FF2046FFF7E2F90320FFF759FBCDE911
:1024000000540A22002311469BA0FFF791F9CDE961
:102410000054002314220A219EA0FFF789F93846B0
:10242000FDF75AFF2046FFF7C9F9002540F6B839F5
:102430004FEA0408FDF776FE002800DA404284B235
:10244000FDF770FE002800DA404286B2FDF76AFE12
:10245000002800DA404287B2FDF764FE002800DA67
:10246000404283B207F01F02C4F30800C6F308011C
:1024700008EA4202FEF7AAFF0120FDF72DFF6D1CBE
:102480004D45D7D34FF47A752846FDF725FFC14651
:1024900044464046FFF792F90320FFF709FBCDE9D8
:1024A00000B40A225E460023114673A0FFF740F9EC
:1024B000CDE90064002314220A2178A0FFF738F93F
:1024C0006800FDF709FF2046FFF778F90024A846C9
:1024D000FDF728FE002800DA404285B2FDF722FE13
:1024E000002800DA404286B2FDF71CFE002800DA20
:1024F000404287B2FDF716FE002800DA404283B260
:10250000C5F30800C6F30801C7F34302FEF7E6FE71
:102510000120FDF7E1FE641C4445D9D34546404601
:10252000FDF7DAFE4C464846FFF748F90320FFF76F
:10253000BFFACDE900B40A22DA465E46002311460E
:102540004DA0FFF7F5F8CDE90064002314220A211D
:1025500056A0FFF7EDF84FF4FA6B5846FDF7BCFEB6
:102560002046FFF72BF900244FEA0508FDF7DAFDB6
:10257000002800DA404285B2FDF7D4FD002800DAD9
:10258000404286B2FDF7CEFD002800DA404287B215
:10259000FDF7C8FD002800DA404283B2C6F3080107
:1025A00007F01F020093C5F308008B180244FEF7E2
:1025B00075FF0120FDF790FE641C4445D6D34646C6
:1025C0004046FDF789FE4D464846FFF7F7F80320E1
:1025D000FFF76EFACDE900A50A22D0465446002343
:1025E000114625A0FFF7A4F8002314220A2163E076
:1025F000000C014046505320544553542C20343095
:10260000206C6F6F7020322073637265656E73008B
:10261000436F756E74696E67206D756C7469706C4C
:1026200065207365676D656E7473206174206F6ECD
:1026300063650000436F756E74696E673A202564A8
:1026400000000000436F756E74696E672073696ED9
:10265000676C65207365676D656E740052656374A1
:10266000616E676C6520616C69676E6D656E742064
:10267000636865636B00000052616E646F6D6C7916
:1026800020706C6163656420616E642073697A6593
:1026900064000000436972636C65730046696C6C8A
:1026A000656420436972636C6573000052656374EE
:1026B000616E676C6573000086A0CDE90045FFF789
:1026C00037F85846FDF708FE2846FFF777F800244C
:1026D0004FEA060AFDF726FD002800DA404285B2DF
:1026E000FDF720FD002800DA404286B2FDF71AFD12
:1026F000002800DA404287B2FDF714FD002800DA16
:10270000404283B207F01F020093C5F30800C6F3EE
:1027100008011346FEF7DCFF0120FDF7DDFD641C18
:102720005445D7D35046FDF7D7FD4E464846FFF7F0
:1027300045F80320FFF7BCF9CDE900860A22474699
:102740000023114668A0FEF7F3FFCDE900760023D1
:1027500014220A216AA0FEF7EBFFDA465846FDF77D
:10276000BBFD3046FFF72AF86B4C00254FF4A078EC
:10277000258065802088C10703D000226188FEF78C
:10278000FBFE2088401C208040462188814202D2E6
:102790006188F029EED36188491C89B26180258067
:1027A000F029F2D3258065806188C80703D0002214
:1027B0002088FEF7E1FE2088401C208020884045CC
:1027C00002D26088F028EFD36088401C80B260801D
:1027D0002580F028F2D355465046FDF77DFDB346DF
:1027E0005846FEF7EBFF0320FFF762F9CDE90076CC
:1027F0000A22B9460023114648A0FEF799FFCDE909
:102800000076002314220A214BA0FEF791FF2846F0
:10281000FDF762FD3046FEF7D1FF0025FDF782FC93
:10282000002800DA404286B2FDF77CFC002800DA7E
:10283000404287B2FDF776FC002800DA404282B2BF
:10284000C6F30800C7F30801FEF796FE3E486D1C6C
:102850008542E3D357465046FDF73EFD5E46584657
:10286000FEF7ACFF0320FFF723F9CDE900960A221B
:102870004D460023114635A0FEF75AFFCDE900561C
:10288000002314220A2135A0FEF752FF3846FDF737
:1028900023FD0025C1460A274FF00508B5FBF7F0D8
:1028A00006EAC021B5FBF8F0B5FBF7F206EA4010E6
:1028B0000844104480B20090F02301222188284669
:1028C000FEF706FF6D1CADB24D45E7D95046FDF74A
:1028D00003FD8BE446696C6C65642052656374612A
:1028E0006E676C6573000000536C6F7720647261D3
:1028F000772062792073656C656374696E67000088
:10290000616E6420616472657373696E67207069BB
:1029100078656C73000000001400002052616E6442
:102920006F6D20706F736974696F6E20616E6420C3
:10293000636F6C6F7572000035303030303020704E
:102940006978656C7300000020A10700436F6C6F0D
:102950007572206772616469656E7400477261798F
:102960007363616C65000000F0B50B30154D20F00D
:1029700007010024144A0FE003688B420BD38B42FB
:1029800005D95E1A43184768C3E9006700E0436849
:10299000136002C004E0021D10680028ECD120463C
:1029A000002802D1286808B10020F0BD064A074877
:1029B0001060074A121A22F00702C0E90024012021
:1029C0002860D7E7300000202C000020D400002031
:1029D000D00200200000000000005C0000000000A9
:1029E000060006000000287C287C28005C54FE5469
:1029F000740044201008440028545420500006005D
:102A000000000000384400000000443800000000CE
:102A100002070200000010107C101000C00000002F
:102A200000001010101010004000000000006010A6
:102A30000C0000007C64544C7C00487C400000008A
:102A4000645454544800445454546C003C20702046
:102A500020005C54545424007C54545474000404E6
:102A600064140C007C5454547C005C5454547C001A
:102A7000440000000000C4000000000010284400D2
:102A800000002828282828004428100000000804F6
:102A9000540800007C4454545C007C2424247C00B2
:102AA0007C5454546C007C44444444007C4444446E
:102AB00038007C54545444007C14141404007C44A6
:102AC000445474007C1010107C0044447C44440046
:102AD000604040447C007C10102844007C40404012
:102AE00040007C0810087C007C0810207C003844E2
:102AF000444438007C14141408003C2464243C0032
:102B00007C14141468005C545454740004047C0451
:102B100004007C4040407C000C3040300C003C40C5
:102B200030403C004428102844000C1060100C0079
:102B30004464544C44007C44000000000C106000CD
:102B40000000447C00000000000100010000404043
:102B5000404040400001000000007C2424247C0010
:102B60007C5454546C007C44444444007C444444AD
:102B700038007C54545444007C14141404007C44E5
:102B8000445474007C1010107C0044447C44440085
:102B9000604040447C007C10102844007C40404051
:102BA00040007C0810087C007C0810207C00384421
:102BB000444438007C14141408003C2464243C0071
:102BC0007C14141468005C545454740004047C0491
:102BD00004007C4040407C000C3040300C003C4005
:102BE00030403C004428102844000C1060100C00B9
:102BF0004464544C4400107C440000006C0000000D
:102C00000000447C100000000201020100000000EE
:102C100000000000000000000000000001020304AA
:102C200006070809442C00080000002034000000BA
:102C3000E81F0008782C0008340000209C060000E3
:102C4000F81F000800000000000000000000000065
:102C500000000000F0004001000000000100000042
:102C600010000000000000000024F400000000003C
:082C700000000000000000005C
:04000005080000ED02
:00000001FF
